{
  "_format": "hh-sol-artifact-1",
  "contractName": "PredictionLogger",
  "sourceName": "contracts/PredictionLogger.sol",
  "abi": [
    {
      "anonymous": false,
      "inputs": [
        {
          "indexed": false,
          "internalType": "string",
          "name": "fileHash",
          "type": "string"
        },
        {
          "indexed": false,
          "internalType": "uint256",
          "name": "timestamp",
          "type": "uint256"
        },
        {
          "indexed": false,
          "internalType": "uint256",
          "name": "rmse",
          "type": "uint256"
        },
        {
          "indexed": false,
          "internalType": "uint256",
          "name": "r2",
          "type": "uint256"
        },
        {
          "indexed": true,
          "internalType": "address",
          "name": "logger",
          "type": "address"
        }
      ],
      "name": "PredictionLogged",
      "type": "event"
    },
    {
      "inputs": [
        {
          "internalType": "uint256",
          "name": "index",
          "type": "uint256"
        }
      ],
      "name": "getRecord",
      "outputs": [
        {
          "internalType": "string",
          "name": "fileHash",
          "type": "string"
        },
        {
          "internalType": "uint256",
          "name": "timestamp",
          "type": "uint256"
        },
        {
          "internalType": "uint256",
          "name": "rmse",
          "type": "uint256"
        },
        {
          "internalType": "uint256",
          "name": "r2",
          "type": "uint256"
        },
        {
          "internalType": "address",
          "name": "logger",
          "type": "address"
        }
      ],
      "stateMutability": "view",
      "type": "function"
    },
    {
      "inputs": [],
      "name": "getRecordCount",
      "outputs": [
        {
          "internalType": "uint256",
          "name": "",
          "type": "uint256"
        }
      ],
      "stateMutability": "view",
      "type": "function"
    },
    {
      "inputs": [
        {
          "internalType": "string",
          "name": "_fileHash",
          "type": "string"
        },
        {
          "internalType": "uint256",
          "name": "_rmse",
          "type": "uint256"
        },
        {
          "internalType": "uint256",
          "name": "_r2",
          "type": "uint256"
        }
      ],
      "name": "logPrediction",
      "outputs": [],
      "stateMutability": "nonpayable",
      "type": "function"
    },
    {
      "inputs": [
        {
          "internalType": "uint256",
          "name": "",
          "type": "uint256"
        }
      ],
      "name": "records",
      "outputs": [
        {
          "internalType": "string",
          "name": "fileHash",
          "type": "string"
        },
        {
          "internalType": "uint256",
          "name": "timestamp",
          "type": "uint256"
        },
        {
          "internalType": "uint256",
          "name": "rmse",
          "type": "uint256"
        },
        {
          "internalType": "uint256",
          "name": "r2",
          "type": "uint256"
        },
        {
          "internalType": "address",
          "name": "logger",
          "type": "address"
        }
      ],
      "stateMutability": "view",
      "type": "function"
    }
  ],
  "bytecode": "0x608060405234801561001057600080fd5b50610a7d806100206000396000f3fe608060405234801561001057600080fd5b506004361061004c5760003560e01c806303e9e609146100515780633446106714610085578063676c3211146100b9578063ca267f28146100d5575b600080fd5b61006b600480360381019061006691906105d1565b6100f3565b60405161007c9594939291906106e7565b60405180910390f35b61009f600480360381019061009a91906105d1565b6102a5565b6040516100b09594939291906106e7565b60405180910390f35b6100d360048036038101906100ce9190610876565b610393565b005b6100dd6104d8565b6040516100ea91906108e5565b60405180910390f35b60606000806000806000805490508610610142576040517f08c379a00000000000000000000000000000000000000000000000000000000081526004016101399061094c565b60405180910390fd5b60008087815481106101575761015661096c565b5b90600052602060002090600502016040518060a0016040529081600082018054610180906109ca565b80601f01602080910402602001604051908101604052809291908181526020018280546101ac906109ca565b80156101f95780601f106101ce576101008083540402835291602001916101f9565b820191906000526020600020905b8154815290600101906020018083116101dc57829003601f168201915b505050505081526020016001820154815260200160028201548152602001600382015481526020016004820160009054906101000a900473ffffffffffffffffffffffffffffffffffffffff1673ffffffffffffffffffffffffffffffffffffffff1673ffffffffffffffffffffffffffffffffffffffff1681525050905080600001518160200151826040015183606001518460800151955095509550955095505091939590929450565b600081815481106102b557600080fd5b90600052602060002090600502016000915090508060000180546102d8906109ca565b80601f0160208091040260200160405190810160405280929190818152602001828054610304906109ca565b80156103515780601f1061032657610100808354040283529160200191610351565b820191906000526020600020905b81548152906001019060200180831161033457829003601f168201915b5050505050908060010154908060020154908060030154908060040160009054906101000a900473ffffffffffffffffffffffffffffffffffffffff16905085565b60006040518060a001604052808581526020014281526020018481526020018381526020013373ffffffffffffffffffffffffffffffffffffffff16815250908060018154018082558091505060019003906000526020600020906005020160009091909190915060008201518160000190805190602001906104179291906104e4565b5060208201518160010155604082015181600201556060820151816003015560808201518160040160006101000a81548173ffffffffffffffffffffffffffffffffffffffff021916908373ffffffffffffffffffffffffffffffffffffffff16021790555050503373ffffffffffffffffffffffffffffffffffffffff167fdaa1c22ea22116b25583d77b7f41eccaa9ee1a654f9847d3149c1b25aeb35689844285856040516104cb94939291906109fb565b60405180910390a2505050565b60008080549050905090565b8280546104f0906109ca565b90600052602060002090601f0160209004810192826105125760008555610559565b82601f1061052b57805160ff1916838001178555610559565b82800160010185558215610559579182015b8281111561055857825182559160200191906001019061053d565b5b509050610566919061056a565b5090565b5b8082111561058357600081600090555060010161056b565b5090565b6000604051905090565b600080fd5b600080fd5b6000819050919050565b6105ae8161059b565b81146105b957600080fd5b50565b6000813590506105cb816105a5565b92915050565b6000602082840312156105e7576105e6610591565b5b60006105f5848285016105bc565b91505092915050565b600081519050919050565b600082825260208201905092915050565b60005b8381101561063857808201518184015260208101905061061d565b83811115610647576000848401525b50505050565b6000601f19601f8301169050919050565b6000610669826105fe565b6106738185610609565b935061068381856020860161061a565b61068c8161064d565b840191505092915050565b6106a08161059b565b82525050565b600073ffffffffffffffffffffffffffffffffffffffff82169050919050565b60006106d1826106a6565b9050919050565b6106e1816106c6565b82525050565b600060a0820190508181036000830152610701818861065e565b90506107106020830187610697565b61071d6040830186610697565b61072a6060830185610697565b61073760808301846106d8565b9695505050505050565b600080fd5b600080fd5b7f4e487b7100000000000000000000000000000000000000000000000000000000600052604160045260246000fd5b6107838261064d565b810181811067ffffffffffffffff821117156107a2576107a161074b565b5b80604052505050565b60006107b5610587565b90506107c1828261077a565b919050565b600067ffffffffffffffff8211156107e1576107e061074b565b5b6107ea8261064d565b9050602081019050919050565b82818337600083830152505050565b6000610819610814846107c6565b6107ab565b90508281526020810184848401111561083557610834610746565b5b6108408482856107f7565b509392505050565b600082601f83011261085d5761085c610741565b5b813561086d848260208601610806565b91505092915050565b60008060006060848603121561088f5761088e610591565b5b600084013567ffffffffffffffff8111156108ad576108ac610596565b5b6108b986828701610848565b93505060206108ca868287016105bc565b92505060406108db868287016105bc565b9150509250925092565b60006020820190506108fa6000830184610697565b92915050565b7f496e646578206f7574206f6620626f756e647300000000000000000000000000600082015250565b6000610936601383610609565b915061094182610900565b602082019050919050565b6000602082019050818103600083015261096581610929565b9050919050565b7f4e487b7100000000000000000000000000000000000000000000000000000000600052603260045260246000fd5b7f4e487b7100000000000000000000000000000000000000000000000000000000600052602260045260246000fd5b600060028204905060018216806109e257607f821691505b6020821081036109f5576109f461099b565b5b50919050565b60006080820190508181036000830152610a15818761065e565b9050610a246020830186610697565b610a316040830185610697565b610a3e6060830184610697565b9594505050505056fea2646970667358221220d34ce39e6fe766a9166afa0166fb2c57ec90df995fec4c44a17a9b4352dec2f764736f6c634300080d0033",
  "linkReferences": {},
  "deployedLinkReferences": {}
}